{
  "contractName": "Voting",
  "abi": [
    {
      "inputs": [],
      "stateMutability": "nonpayable",
      "type": "constructor"
    },
    {
      "anonymous": false,
      "inputs": [],
      "name": "NewVotingSystem",
      "type": "event"
    },
    {
      "anonymous": false,
      "inputs": [
        {
          "indexed": true,
          "internalType": "address",
          "name": "previousOwner",
          "type": "address"
        },
        {
          "indexed": true,
          "internalType": "address",
          "name": "newOwner",
          "type": "address"
        }
      ],
      "name": "OwnershipTransferred",
      "type": "event"
    },
    {
      "anonymous": false,
      "inputs": [
        {
          "indexed": false,
          "internalType": "uint256",
          "name": "proposalId",
          "type": "uint256"
        }
      ],
      "name": "ProposalRegistered",
      "type": "event"
    },
    {
      "anonymous": false,
      "inputs": [],
      "name": "ProposalsRegistrationEnded",
      "type": "event"
    },
    {
      "anonymous": false,
      "inputs": [],
      "name": "ProposalsRegistrationStarted",
      "type": "event"
    },
    {
      "anonymous": false,
      "inputs": [
        {
          "indexed": false,
          "internalType": "address",
          "name": "voter",
          "type": "address"
        },
        {
          "indexed": false,
          "internalType": "uint256",
          "name": "proposalId",
          "type": "uint256"
        }
      ],
      "name": "Voted",
      "type": "event"
    },
    {
      "anonymous": false,
      "inputs": [
        {
          "indexed": false,
          "internalType": "address",
          "name": "voterAddress",
          "type": "address"
        }
      ],
      "name": "VoterRegistered",
      "type": "event"
    },
    {
      "anonymous": false,
      "inputs": [],
      "name": "VotesTallied",
      "type": "event"
    },
    {
      "anonymous": false,
      "inputs": [],
      "name": "VotingSessionEnded",
      "type": "event"
    },
    {
      "anonymous": false,
      "inputs": [],
      "name": "VotingSessionStarted",
      "type": "event"
    },
    {
      "anonymous": false,
      "inputs": [
        {
          "indexed": false,
          "internalType": "enum Voting.WorkflowStatus",
          "name": "previousStatus",
          "type": "uint8"
        },
        {
          "indexed": false,
          "internalType": "enum Voting.WorkflowStatus",
          "name": "newStatus",
          "type": "uint8"
        }
      ],
      "name": "WorkflowStatusChange",
      "type": "event"
    },
    {
      "inputs": [],
      "name": "owner",
      "outputs": [
        {
          "internalType": "address",
          "name": "",
          "type": "address"
        }
      ],
      "stateMutability": "view",
      "type": "function",
      "constant": true
    },
    {
      "inputs": [
        {
          "internalType": "uint256",
          "name": "",
          "type": "uint256"
        }
      ],
      "name": "proposals",
      "outputs": [
        {
          "internalType": "uint8",
          "name": "id",
          "type": "uint8"
        },
        {
          "internalType": "address",
          "name": "owner",
          "type": "address"
        },
        {
          "internalType": "string",
          "name": "description",
          "type": "string"
        },
        {
          "internalType": "uint256",
          "name": "voteCount",
          "type": "uint256"
        }
      ],
      "stateMutability": "view",
      "type": "function",
      "constant": true
    },
    {
      "inputs": [],
      "name": "renounceOwnership",
      "outputs": [],
      "stateMutability": "nonpayable",
      "type": "function"
    },
    {
      "inputs": [],
      "name": "status",
      "outputs": [
        {
          "internalType": "enum Voting.WorkflowStatus",
          "name": "",
          "type": "uint8"
        }
      ],
      "stateMutability": "view",
      "type": "function",
      "constant": true
    },
    {
      "inputs": [
        {
          "internalType": "address",
          "name": "newOwner",
          "type": "address"
        }
      ],
      "name": "transferOwnership",
      "outputs": [],
      "stateMutability": "nonpayable",
      "type": "function"
    },
    {
      "inputs": [
        {
          "internalType": "address",
          "name": "",
          "type": "address"
        }
      ],
      "name": "voters",
      "outputs": [
        {
          "internalType": "bool",
          "name": "isRegistered",
          "type": "bool"
        },
        {
          "internalType": "address",
          "name": "_address",
          "type": "address"
        },
        {
          "internalType": "bool",
          "name": "hasVoted",
          "type": "bool"
        },
        {
          "internalType": "uint256",
          "name": "votedProposalId",
          "type": "uint256"
        }
      ],
      "stateMutability": "view",
      "type": "function",
      "constant": true
    },
    {
      "inputs": [
        {
          "internalType": "address",
          "name": "",
          "type": "address"
        }
      ],
      "name": "whiteList",
      "outputs": [
        {
          "internalType": "bool",
          "name": "isRegistered",
          "type": "bool"
        },
        {
          "internalType": "address",
          "name": "_address",
          "type": "address"
        },
        {
          "internalType": "bool",
          "name": "hasVoted",
          "type": "bool"
        },
        {
          "internalType": "uint256",
          "name": "votedProposalId",
          "type": "uint256"
        }
      ],
      "stateMutability": "view",
      "type": "function",
      "constant": true
    },
    {
      "inputs": [],
      "name": "winningProposalId",
      "outputs": [
        {
          "internalType": "uint8",
          "name": "",
          "type": "uint8"
        }
      ],
      "stateMutability": "view",
      "type": "function",
      "constant": true
    },
    {
      "inputs": [],
      "name": "getWinningProposal",
      "outputs": [
        {
          "components": [
            {
              "internalType": "uint8",
              "name": "id",
              "type": "uint8"
            },
            {
              "internalType": "address",
              "name": "owner",
              "type": "address"
            },
            {
              "internalType": "string",
              "name": "description",
              "type": "string"
            },
            {
              "internalType": "uint256",
              "name": "voteCount",
              "type": "uint256"
            }
          ],
          "internalType": "struct Voting.Proposal",
          "name": "proposal",
          "type": "tuple"
        }
      ],
      "stateMutability": "view",
      "type": "function",
      "constant": true
    },
    {
      "inputs": [
        {
          "internalType": "address",
          "name": "_address",
          "type": "address"
        }
      ],
      "name": "addVoter",
      "outputs": [],
      "stateMutability": "nonpayable",
      "type": "function"
    },
    {
      "inputs": [
        {
          "internalType": "address",
          "name": "_address",
          "type": "address"
        }
      ],
      "name": "deleteVoter",
      "outputs": [],
      "stateMutability": "nonpayable",
      "type": "function"
    },
    {
      "inputs": [],
      "name": "startProposalRegistration",
      "outputs": [],
      "stateMutability": "nonpayable",
      "type": "function"
    },
    {
      "inputs": [],
      "name": "endProposalRegistration",
      "outputs": [],
      "stateMutability": "nonpayable",
      "type": "function"
    },
    {
      "inputs": [],
      "name": "startVotingSession",
      "outputs": [],
      "stateMutability": "nonpayable",
      "type": "function"
    },
    {
      "inputs": [],
      "name": "endVotingSession",
      "outputs": [],
      "stateMutability": "nonpayable",
      "type": "function"
    },
    {
      "inputs": [
        {
          "internalType": "string",
          "name": "_description",
          "type": "string"
        }
      ],
      "name": "addProposal",
      "outputs": [],
      "stateMutability": "nonpayable",
      "type": "function"
    },
    {
      "inputs": [
        {
          "internalType": "uint256",
          "name": "_id",
          "type": "uint256"
        }
      ],
      "name": "deleteProposal",
      "outputs": [],
      "stateMutability": "nonpayable",
      "type": "function"
    },
    {
      "inputs": [
        {
          "internalType": "uint256",
          "name": "_id",
          "type": "uint256"
        }
      ],
      "name": "vote",
      "outputs": [],
      "stateMutability": "nonpayable",
      "type": "function"
    },
    {
      "inputs": [],
      "name": "count",
      "outputs": [],
      "stateMutability": "nonpayable",
      "type": "function"
    },
    {
      "inputs": [],
      "name": "getEnum",
      "outputs": [
        {
          "internalType": "enum Voting.WorkflowStatus",
          "name": "",
          "type": "uint8"
        }
      ],
      "stateMutability": "view",
      "type": "function",
      "constant": true
    }
  ],
  "bytecode": "0x608060405234801561001057600080fd5b5060006100216100f060201b60201c565b9050806000806101000a81548173ffffffffffffffffffffffffffffffffffffffff021916908373ffffffffffffffffffffffffffffffffffffffff1602179055508073ffffffffffffffffffffffffffffffffffffffff16600073ffffffffffffffffffffffffffffffffffffffff167f8be0079c531659141344cd1fd0a4f28419497f9722a3daafe3b4186f6b6457e060405160405180910390a3507f28c5e727295d809da653948416bdc4fe30913878a5f1332ded39bc4730d10c5660405160405180910390a16100f8565b600033905090565b611f8c806101076000396000f3fe608060405234801561001057600080fd5b506004361061012c5760003560e01c80638da5cb5b116100ad578063e85a8f2a11610071578063e85a8f2a146102da578063ee74c678146102e4578063f0ebce5a146102ee578063f2fde38b1461030c578063f4ab9adf146103285761012c565b80638da5cb5b14610243578063a3ec138d14610261578063a513462014610294578063a7bfab16146102b2578063c64963c5146102bc5761012c565b80632fdae3c5116100f45780632fdae3c5146101b2578063372c12b1146101ce578063715018a6146102015780638259d5531461020b57806388e1c739146102275761012c565b80630121b93f14610131578063013cf08b1461014d57806306661abd146101805780630f7e28381461018a578063200d2ed214610194575b600080fd5b61014b600480360381019061014691906119be565b610344565b005b610167600480360381019061016291906119be565b6104f3565b6040516101779493929190611d34565b60405180910390f35b6101886105e8565b005b610192610791565b005b61019c610878565b6040516101a99190611c81565b60405180910390f35b6101cc60048036038101906101c7919061197d565b61088b565b005b6101e860048036038101906101e39190611954565b610aa4565b6040516101f89493929190611c3c565b60405180910390f35b610209610b0e565b005b610225600480360381019061022091906119be565b610c61565b005b610241600480360381019061023c9190611954565b610d9b565b005b61024b610ecc565b6040516102589190611bf8565b60405180910390f35b61027b60048036038101906102769190611954565b610ef5565b60405161028b9493929190611c3c565b60405180910390f35b61029c610f5f565b6040516102a99190611cdc565b60405180910390f35b6102ba6110ba565b005b6102c46111a0565b6040516102d19190611d19565b60405180910390f35b6102e26111b3565b005b6102ec61129a565b005b6102f6611381565b6040516103039190611c81565b60405180910390f35b61032660048036038101906103219190611954565b611386565b005b610342600480360381019061033d9190611954565b611548565b005b60011515600260003373ffffffffffffffffffffffffffffffffffffffff1673ffffffffffffffffffffffffffffffffffffffff16815260200190815260200160002060000160009054906101000a900460ff161515146103a457600080fd5b600360058111156103b157fe5b600460009054906101000a900460ff1660058111156103cc57fe5b146103d657600080fd5b60001515600260003373ffffffffffffffffffffffffffffffffffffffff1673ffffffffffffffffffffffffffffffffffffffff16815260200190815260200160002060000160159054906101000a900460ff1615151461043657600080fd5b6001600260003373ffffffffffffffffffffffffffffffffffffffff1673ffffffffffffffffffffffffffffffffffffffff16815260200190815260200160002060000160156101000a81548160ff02191690831515021790555060036000828152602001908152602001600020600201600081548092919060010191905055507f4d99b957a2bc29a30ebd96a7be8e68fe50a3c701db28a91436490b7d53870ca433826040516104e8929190611c13565b60405180910390a150565b60036020528060005260406000206000915090508060000160009054906101000a900460ff16908060000160019054906101000a900473ffffffffffffffffffffffffffffffffffffffff1690806001018054600181600116156101000203166002900480601f0160208091040260200160405190810160405280929190818152602001828054600181600116156101000203166002900480156105d85780601f106105ad576101008083540402835291602001916105d8565b820191906000526020600020905b8154815290600101906020018083116105bb57829003601f168201915b5050505050908060020154905084565b6105f0611766565b73ffffffffffffffffffffffffffffffffffffffff1660008054906101000a900473ffffffffffffffffffffffffffffffffffffffff1673ffffffffffffffffffffffffffffffffffffffff161461067d576040517f08c379a000000000000000000000000000000000000000000000000000000000815260040161067490611cbc565b60405180910390fd5b6004600581111561068a57fe5b600460009054906101000a900460ff1660058111156106a557fe5b146106af57600080fd5b60008060005b600060159054906101000a900460ff1660ff16811015610721576003600082815260200190815260200160002060020154821015610714576003600082815260200190815260200160002060000160009054906101000a900460ff1692505b80806001019150506106b5565b5081600060146101000a81548160ff021916908360ff1602179055507f0e5e95ff8725ab3e7a4b6b59998a4c344c2aa8d1485f5e60cb7f337768e6134760405160405180910390a16005600460006101000a81548160ff0219169083600581111561078857fe5b02179055505050565b610799611766565b73ffffffffffffffffffffffffffffffffffffffff1660008054906101000a900473ffffffffffffffffffffffffffffffffffffffff1673ffffffffffffffffffffffffffffffffffffffff1614610826576040517f08c379a000000000000000000000000000000000000000000000000000000000815260040161081d90611cbc565b60405180910390fd5b6001600460006101000a81548160ff0219169083600581111561084557fe5b02179055507f344c25562921d075a298d34b6dd1fd00d36ff293974539dfd4a8c625d9f0064c60405160405180910390a1565b600460009054906101000a900460ff1681565b60011515600260003373ffffffffffffffffffffffffffffffffffffffff1673ffffffffffffffffffffffffffffffffffffffff16815260200190815260200160002060000160009054906101000a900460ff161515146108eb57600080fd5b600160058111156108f857fe5b600460009054906101000a900460ff16600581111561091357fe5b1461091d57600080fd5b61092561176e565b6040518060800160405280600060159054906101000a900460ff1660ff1681526020013373ffffffffffffffffffffffffffffffffffffffff1681526020018381526020016000815250905080600360008060159054906101000a900460ff1660ff16815260200190815260200160002060008201518160000160006101000a81548160ff021916908360ff16021790555060208201518160000160016101000a81548173ffffffffffffffffffffffffffffffffffffffff021916908373ffffffffffffffffffffffffffffffffffffffff1602179055506040820151816001019080519060200190610a1a9291906117af565b50606082015181600201559050507f92e393e9b54e2f801d3ea4beb0c5e71a21cc34a5d34b77d0fb8a3aa1650dc18f600060159054906101000a900460ff16604051610a669190611cfe565b60405180910390a16000601581819054906101000a900460ff168092919060010191906101000a81548160ff021916908360ff160217905550505050565b60026020528060005260406000206000915090508060000160009054906101000a900460ff16908060000160019054906101000a900473ffffffffffffffffffffffffffffffffffffffff16908060000160159054906101000a900460ff16908060010154905084565b610b16611766565b73ffffffffffffffffffffffffffffffffffffffff1660008054906101000a900473ffffffffffffffffffffffffffffffffffffffff1673ffffffffffffffffffffffffffffffffffffffff1614610ba3576040517f08c379a0000000000000000000000000000000000000000000000000000000008152600401610b9a90611cbc565b60405180910390fd5b600073ffffffffffffffffffffffffffffffffffffffff1660008054906101000a900473ffffffffffffffffffffffffffffffffffffffff1673ffffffffffffffffffffffffffffffffffffffff167f8be0079c531659141344cd1fd0a4f28419497f9722a3daafe3b4186f6b6457e060405160405180910390a360008060006101000a81548173ffffffffffffffffffffffffffffffffffffffff021916908373ffffffffffffffffffffffffffffffffffffffff160217905550565b60011515600260003373ffffffffffffffffffffffffffffffffffffffff1673ffffffffffffffffffffffffffffffffffffffff16815260200190815260200160002060000160009054906101000a900460ff16151514610cc157600080fd5b3373ffffffffffffffffffffffffffffffffffffffff166003600083815260200190815260200160002060000160019054906101000a900473ffffffffffffffffffffffffffffffffffffffff1673ffffffffffffffffffffffffffffffffffffffff1614610d2f57600080fd5b60036000828152602001908152602001600020600080820160006101000a81549060ff02191690556000820160016101000a81549073ffffffffffffffffffffffffffffffffffffffff0219169055600182016000610d8e919061182f565b6002820160009055505050565b610da3611766565b73ffffffffffffffffffffffffffffffffffffffff1660008054906101000a900473ffffffffffffffffffffffffffffffffffffffff1673ffffffffffffffffffffffffffffffffffffffff1614610e30576040517f08c379a0000000000000000000000000000000000000000000000000000000008152600401610e2790611cbc565b60405180910390fd5b600260008273ffffffffffffffffffffffffffffffffffffffff1673ffffffffffffffffffffffffffffffffffffffff168152602001908152602001600020600080820160006101000a81549060ff02191690556000820160016101000a81549073ffffffffffffffffffffffffffffffffffffffff02191690556000820160156101000a81549060ff02191690556001820160009055505050565b60008060009054906101000a900473ffffffffffffffffffffffffffffffffffffffff16905090565b60016020528060005260406000206000915090508060000160009054906101000a900460ff16908060000160019054906101000a900473ffffffffffffffffffffffffffffffffffffffff16908060000160159054906101000a900460ff16908060010154905084565b610f6761176e565b600360008060149054906101000a900460ff1660ff1681526020019081526020016000206040518060800160405290816000820160009054906101000a900460ff1660ff1660ff1681526020016000820160019054906101000a900473ffffffffffffffffffffffffffffffffffffffff1673ffffffffffffffffffffffffffffffffffffffff1673ffffffffffffffffffffffffffffffffffffffff168152602001600182018054600181600116156101000203166002900480601f0160208091040260200160405190810160405280929190818152602001828054600181600116156101000203166002900480156110a25780601f10611077576101008083540402835291602001916110a2565b820191906000526020600020905b81548152906001019060200180831161108557829003601f168201915b50505050508152602001600282015481525050905090565b6110c2611766565b73ffffffffffffffffffffffffffffffffffffffff1660008054906101000a900473ffffffffffffffffffffffffffffffffffffffff1673ffffffffffffffffffffffffffffffffffffffff161461114f576040517f08c379a000000000000000000000000000000000000000000000000000000000815260040161114690611cbc565b60405180910390fd5b60048060006101000a81548160ff0219169083600581111561116d57fe5b02179055507fc379d349a6301baf50fb2f98d829f4ae10b1cdb7c66f4e4d8117302df7b8cd4c60405160405180910390a1565b600060149054906101000a900460ff1681565b6111bb611766565b73ffffffffffffffffffffffffffffffffffffffff1660008054906101000a900473ffffffffffffffffffffffffffffffffffffffff1673ffffffffffffffffffffffffffffffffffffffff1614611248576040517f08c379a000000000000000000000000000000000000000000000000000000000815260040161123f90611cbc565b60405180910390fd5b6002600460006101000a81548160ff0219169083600581111561126757fe5b02179055507f240cb87b2e4df4c318e72bd714d45a9cad60249e883ff56b1fffd83a4595a8fa60405160405180910390a1565b6112a2611766565b73ffffffffffffffffffffffffffffffffffffffff1660008054906101000a900473ffffffffffffffffffffffffffffffffffffffff1673ffffffffffffffffffffffffffffffffffffffff161461132f576040517f08c379a000000000000000000000000000000000000000000000000000000000815260040161132690611cbc565b60405180910390fd5b6003600460006101000a81548160ff0219169083600581111561134e57fe5b02179055507f1b8e19a458c1bcd88553332c518cc5c4e2d5793e712ee766d4f1c14f672ef1f560405160405180910390a1565b600090565b61138e611766565b73ffffffffffffffffffffffffffffffffffffffff1660008054906101000a900473ffffffffffffffffffffffffffffffffffffffff1673ffffffffffffffffffffffffffffffffffffffff161461141b576040517f08c379a000000000000000000000000000000000000000000000000000000000815260040161141290611cbc565b60405180910390fd5b600073ffffffffffffffffffffffffffffffffffffffff168173ffffffffffffffffffffffffffffffffffffffff16141561148b576040517f08c379a000000000000000000000000000000000000000000000000000000000815260040161148290611c9c565b60405180910390fd5b8073ffffffffffffffffffffffffffffffffffffffff1660008054906101000a900473ffffffffffffffffffffffffffffffffffffffff1673ffffffffffffffffffffffffffffffffffffffff167f8be0079c531659141344cd1fd0a4f28419497f9722a3daafe3b4186f6b6457e060405160405180910390a3806000806101000a81548173ffffffffffffffffffffffffffffffffffffffff021916908373ffffffffffffffffffffffffffffffffffffffff16021790555050565b611550611766565b73ffffffffffffffffffffffffffffffffffffffff1660008054906101000a900473ffffffffffffffffffffffffffffffffffffffff1673ffffffffffffffffffffffffffffffffffffffff16146115dd576040517f08c379a00000000000000000000000000000000000000000000000000000000081526004016115d490611cbc565b60405180910390fd5b600060058111156115ea57fe5b600460009054906101000a900460ff16600581111561160557fe5b1461160f57600080fd5b611617611877565b60405180608001604052806001151581526020018373ffffffffffffffffffffffffffffffffffffffff1681526020016000151581526020016000815250905080600260008473ffffffffffffffffffffffffffffffffffffffff1673ffffffffffffffffffffffffffffffffffffffff16815260200190815260200160002060008201518160000160006101000a81548160ff02191690831515021790555060208201518160000160016101000a81548173ffffffffffffffffffffffffffffffffffffffff021916908373ffffffffffffffffffffffffffffffffffffffff16021790555060408201518160000160156101000a81548160ff021916908315150217905550606082015181600101559050507fb6be2187d059cc2a55fe29e0e503b566e1e0f8c8780096e185429350acffd3dd8260405161175a9190611bf8565b60405180910390a15050565b600033905090565b6040518060800160405280600060ff168152602001600073ffffffffffffffffffffffffffffffffffffffff16815260200160608152602001600081525090565b828054600181600116156101000203166002900490600052602060002090601f016020900481019282601f106117f057805160ff191683800117855561181e565b8280016001018555821561181e579182015b8281111561181d578251825591602001919060010190611802565b5b50905061182b91906118b9565b5090565b50805460018160011615610100020316600290046000825580601f106118555750611874565b601f01602090049060005260206000209081019061187391906118b9565b5b50565b6040518060800160405280600015158152602001600073ffffffffffffffffffffffffffffffffffffffff168152602001600015158152602001600081525090565b5b808211156118d25760008160009055506001016118ba565b5090565b6000813590506118e581611f28565b92915050565b600082601f8301126118fc57600080fd5b813561190f61190a82611dad565b611d80565b9150808252602083016020830185838301111561192b57600080fd5b611936838284611ec8565b50505092915050565b60008135905061194e81611f3f565b92915050565b60006020828403121561196657600080fd5b6000611974848285016118d6565b91505092915050565b60006020828403121561198f57600080fd5b600082013567ffffffffffffffff8111156119a957600080fd5b6119b5848285016118eb565b91505092915050565b6000602082840312156119d057600080fd5b60006119de8482850161193f565b91505092915050565b6119f081611e6e565b82525050565b6119ff81611e06565b82525050565b611a0e81611e06565b82525050565b611a1d81611e18565b82525050565b611a2c81611e80565b82525050565b6000611a3d82611dd9565b611a478185611de4565b9350611a57818560208601611ed7565b611a6081611f0a565b840191505092915050565b6000611a7682611dd9565b611a808185611df5565b9350611a90818560208601611ed7565b611a9981611f0a565b840191505092915050565b6000611ab1602683611df5565b91507f4f776e61626c653a206e6577206f776e657220697320746865207a65726f206160008301527f64647265737300000000000000000000000000000000000000000000000000006020830152604082019050919050565b6000611b17602083611df5565b91507f4f776e61626c653a2063616c6c6572206973206e6f7420746865206f776e65726000830152602082019050919050565b6000608083016000830151611b626000860182611bda565b506020830151611b7560208601826119f6565b5060408301518482036040860152611b8d8282611a32565b9150506060830151611ba26060860182611bad565b508091505092915050565b611bb681611e57565b82525050565b611bc581611e57565b82525050565b611bd481611eb6565b82525050565b611be381611e61565b82525050565b611bf281611e61565b82525050565b6000602082019050611c0d6000830184611a05565b92915050565b6000604082019050611c2860008301856119e7565b611c356020830184611bbc565b9392505050565b6000608082019050611c516000830187611a14565b611c5e6020830186611a05565b611c6b6040830185611a14565b611c786060830184611bbc565b95945050505050565b6000602082019050611c966000830184611a23565b92915050565b60006020820190508181036000830152611cb581611aa4565b9050919050565b60006020820190508181036000830152611cd581611b0a565b9050919050565b60006020820190508181036000830152611cf68184611b4a565b905092915050565b6000602082019050611d136000830184611bcb565b92915050565b6000602082019050611d2e6000830184611be9565b92915050565b6000608082019050611d496000830187611be9565b611d566020830186611a05565b8181036040830152611d688185611a6b565b9050611d776060830184611bbc565b95945050505050565b6000604051905081810181811067ffffffffffffffff82111715611da357600080fd5b8060405250919050565b600067ffffffffffffffff821115611dc457600080fd5b601f19601f8301169050602081019050919050565b600081519050919050565b600082825260208201905092915050565b600082825260208201905092915050565b6000611e1182611e37565b9050919050565b60008115159050919050565b6000819050611e3282611f1b565b919050565b600073ffffffffffffffffffffffffffffffffffffffff82169050919050565b6000819050919050565b600060ff82169050919050565b6000611e7982611e92565b9050919050565b6000611e8b82611e24565b9050919050565b6000611e9d82611ea4565b9050919050565b6000611eaf82611e37565b9050919050565b6000611ec182611e61565b9050919050565b82818337600083830152505050565b60005b83811015611ef5578082015181840152602081019050611eda565b83811115611f04576000848401525b50505050565b6000601f19601f8301169050919050565b60068110611f2557fe5b50565b611f3181611e06565b8114611f3c57600080fd5b50565b611f4881611e57565b8114611f5357600080fd5b5056fea2646970667358221220272aafb666033ec22d930a6b5601207535bf6f4b09df1066f03b68761c86cf8664736f6c634300060c0033",
  "immutableReferences": {},
  "source": "// SPDX-License-Identifier: GPL-3.0\npragma solidity ^0.6.11;\npragma experimental ABIEncoderV2;\n\n/* import contrat ownable*/\nimport \"./Ownable.sol\";\n\n/**\n * @title Voting\n   @author Sandy,Julien,Stphane\n   @notice Contrat de vote, getsion par un superadmin\n */\n\ncontract Voting is Ownable {\n    uint8 public winningProposalId;\n\n    uint8 proposalIds;\n\n    struct Voter {\n        bool isRegistered;\n        address _address;\n        bool hasVoted;\n        uint256 votedProposalId;\n    }\n\n    struct Proposal {\n        uint8 id;\n        address owner;\n        string description;\n        uint256 voteCount;\n    }\n\n    mapping(address => Voter) public voters; // liste lectorale\n    mapping(address => Voter) public whiteList;\n\n    mapping(uint256 => Proposal) public proposals;\n\n    enum WorkflowStatus {\n        RegisteringVoters,\n        ProposalsRegistrationStarted,\n        ProposalsRegistrationEnded,\n        VotingSessionStarted,\n        VotingSessionEnded,\n        VotesTallied\n    }\n\n    WorkflowStatus public status;\n\n    ///@notice Events\n    event NewVotingSystem();\n    event VoterRegistered(address voterAddress);\n    event ProposalsRegistrationStarted();\n    event ProposalsRegistrationEnded();\n    event ProposalRegistered(uint256 proposalId);\n    event VotingSessionStarted();\n    event VotingSessionEnded();\n    event Voted(address voter, uint256 proposalId);\n    event VotesTallied();\n    event WorkflowStatusChange(\n        WorkflowStatus previousStatus,\n        WorkflowStatus newStatus\n    );\n\n    constructor() public {\n        emit NewVotingSystem();\n    }\n\n    function getWinningProposal()\n        public\n        view\n        returns (Proposal memory proposal)\n    {\n        return proposals[winningProposalId];\n    }\n\n    ///@param _address  ajouter  la whitelist\n    function addVoter(address _address) public onlyOwner {\n        require(status == WorkflowStatus.RegisteringVoters);\n        Voter memory newVoter = Voter(true, _address, false, 0);\n        whiteList[_address] = newVoter;\n        emit VoterRegistered(_address);\n    }\n\n    ///@dev verifier le gas\n    function deleteVoter(address _address) public onlyOwner {\n        delete whiteList[_address];\n    }\n\n    function startProposalRegistration() public onlyOwner {\n        status = WorkflowStatus.ProposalsRegistrationStarted;\n        emit ProposalsRegistrationStarted();\n    }\n\n    function endProposalRegistration() public onlyOwner {\n        status = WorkflowStatus.ProposalsRegistrationEnded;\n        emit ProposalsRegistrationEnded();\n    }\n\n    function startVotingSession() public onlyOwner {\n        status = WorkflowStatus.VotingSessionStarted;\n        emit VotingSessionStarted();\n    }\n\n    function endVotingSession() public onlyOwner {\n        status = WorkflowStatus.VotingSessionEnded;\n        emit VotingSessionEnded();\n    }\n\n    ///@dev Verification de la presence de l'address dans la whitelist\n    modifier whiteListed() {\n        require(whiteList[msg.sender].isRegistered == true);\n        _;\n    }\n\n    ///@param _description est le nom de la proposition\n    function addProposal(string memory _description) public whiteListed {\n        //obligation d'tre dans le workflow correspondant\n        require(status == WorkflowStatus.ProposalsRegistrationStarted);\n        Proposal memory newProposal =\n            Proposal(proposalIds, msg.sender, _description, 0);\n        proposals[proposalIds] = newProposal;\n        emit ProposalRegistered(proposalIds);\n        proposalIds++;\n    }\n\n    function deleteProposal(uint256 _id) public whiteListed {\n        require(proposals[_id].owner == msg.sender);\n        delete proposals[_id];\n    }\n\n    function vote(uint256 _id) public whiteListed {\n        require(status == WorkflowStatus.VotingSessionStarted);\n        require(whiteList[msg.sender].hasVoted == false);\n        whiteList[msg.sender].hasVoted = true;\n        proposals[_id].voteCount++;\n        emit Voted(msg.sender, _id);\n    }\n\n    function count() public onlyOwner {\n        require(status == WorkflowStatus.VotingSessionEnded);\n        uint8 id;\n        uint256 highestCount;\n\n        for (uint256 i = 0; i < proposalIds; i++) {\n            if (highestCount < proposals[i].voteCount) {\n                id = proposals[i].id;\n            }\n            ///@dev  voir les cas particuliers o plusieurs gagnants\n        }\n        winningProposalId = id;\n        emit VotesTallied();\n        status = WorkflowStatus.VotesTallied;\n    }\n\n    ///@return le statut en cours du vote\n    function getEnum() public view returns (WorkflowStatus) {}\n}\n",
  "sourcePath": "/Users/sandyinstructor/Documents/BLOCKCHAIN/Alyra/Defi/defi1/contracts/Voting.sol",
  "compiler": {
    "name": "solc",
    "version": "0.6.12+commit.27d51765.Emscripten.clang"
  },
  "schemaVersion": "3.3.4",
  "updatedAt": "2021-02-27T20:21:04.331Z",
  "networkType": "ethereum",
  "devdoc": {
    "author": "Sandy,Julien,Stphane",
    "kind": "dev",
    "methods": {
      "addProposal(string)": {
        "params": {
          "_description": "est le nom de la proposition"
        }
      },
      "addVoter(address)": {
        "params": {
          "_address": " ajouter  la whitelist"
        }
      },
      "deleteVoter(address)": {
        "details": "verifier le gas"
      },
      "getEnum()": {
        "returns": {
          "_0": "le statut en cours du vote"
        }
      },
      "owner()": {
        "details": "Returns the address of the current owner."
      },
      "renounceOwnership()": {
        "details": "Leaves the contract without owner. It will not be possible to call `onlyOwner` functions anymore. Can only be called by the current owner. NOTE: Renouncing ownership will leave the contract without an owner, thereby removing any functionality that is only available to the owner."
      },
      "transferOwnership(address)": {
        "details": "Transfers ownership of the contract to a new account (`newOwner`). Can only be called by the current owner."
      }
    },
    "title": "Voting",
    "version": 1
  },
  "userdoc": {
    "events": {
      "NewVotingSystem()": {
        "notice": "Events"
      }
    },
    "kind": "user",
    "methods": {},
    "notice": "Contrat de vote, getsion par un superadmin",
    "version": 1
  }
}