{
  "contractName": "Voting",
  "abi": [
    {
      "inputs": [],
      "stateMutability": "nonpayable",
      "type": "constructor"
    },
    {
      "anonymous": false,
      "inputs": [],
      "name": "NewVotingSystem",
      "type": "event"
    },
    {
      "anonymous": false,
      "inputs": [
        {
          "indexed": true,
          "internalType": "address",
          "name": "previousOwner",
          "type": "address"
        },
        {
          "indexed": true,
          "internalType": "address",
          "name": "newOwner",
          "type": "address"
        }
      ],
      "name": "OwnershipTransferred",
      "type": "event"
    },
    {
      "anonymous": false,
      "inputs": [
        {
          "indexed": false,
          "internalType": "uint256",
          "name": "proposalId",
          "type": "uint256"
        }
      ],
      "name": "ProposalRegistered",
      "type": "event"
    },
    {
      "anonymous": false,
      "inputs": [],
      "name": "ProposalsRegistrationEnded",
      "type": "event"
    },
    {
      "anonymous": false,
      "inputs": [],
      "name": "ProposalsRegistrationStarted",
      "type": "event"
    },
    {
      "anonymous": false,
      "inputs": [
        {
          "indexed": false,
          "internalType": "address",
          "name": "voter",
          "type": "address"
        },
        {
          "indexed": false,
          "internalType": "uint256",
          "name": "proposalId",
          "type": "uint256"
        }
      ],
      "name": "Voted",
      "type": "event"
    },
    {
      "anonymous": false,
      "inputs": [
        {
          "indexed": false,
          "internalType": "address",
          "name": "voterAddress",
          "type": "address"
        }
      ],
      "name": "VoterRegistered",
      "type": "event"
    },
    {
      "anonymous": false,
      "inputs": [],
      "name": "VotesTallied",
      "type": "event"
    },
    {
      "anonymous": false,
      "inputs": [],
      "name": "VotingSessionEnded",
      "type": "event"
    },
    {
      "anonymous": false,
      "inputs": [],
      "name": "VotingSessionStarted",
      "type": "event"
    },
    {
      "anonymous": false,
      "inputs": [
        {
          "indexed": false,
          "internalType": "enum Voting.WorkflowStatus",
          "name": "previousStatus",
          "type": "uint8"
        },
        {
          "indexed": false,
          "internalType": "enum Voting.WorkflowStatus",
          "name": "newStatus",
          "type": "uint8"
        }
      ],
      "name": "WorkflowStatusChange",
      "type": "event"
    },
    {
      "inputs": [],
      "name": "owner",
      "outputs": [
        {
          "internalType": "address",
          "name": "",
          "type": "address"
        }
      ],
      "stateMutability": "view",
      "type": "function"
    },
    {
      "inputs": [
        {
          "internalType": "uint256",
          "name": "",
          "type": "uint256"
        }
      ],
      "name": "proposals",
      "outputs": [
        {
          "internalType": "uint8",
          "name": "id",
          "type": "uint8"
        },
        {
          "internalType": "address",
          "name": "owner",
          "type": "address"
        },
        {
          "internalType": "string",
          "name": "description",
          "type": "string"
        },
        {
          "internalType": "uint256",
          "name": "voteCount",
          "type": "uint256"
        }
      ],
      "stateMutability": "view",
      "type": "function"
    },
    {
      "inputs": [],
      "name": "renounceOwnership",
      "outputs": [],
      "stateMutability": "nonpayable",
      "type": "function"
    },
    {
      "inputs": [],
      "name": "status",
      "outputs": [
        {
          "internalType": "enum Voting.WorkflowStatus",
          "name": "",
          "type": "uint8"
        }
      ],
      "stateMutability": "view",
      "type": "function"
    },
    {
      "inputs": [
        {
          "internalType": "address",
          "name": "newOwner",
          "type": "address"
        }
      ],
      "name": "transferOwnership",
      "outputs": [],
      "stateMutability": "nonpayable",
      "type": "function"
    },
    {
      "inputs": [
        {
          "internalType": "address",
          "name": "",
          "type": "address"
        }
      ],
      "name": "voters",
      "outputs": [
        {
          "internalType": "bool",
          "name": "isRegistered",
          "type": "bool"
        },
        {
          "internalType": "address",
          "name": "_address",
          "type": "address"
        },
        {
          "internalType": "bool",
          "name": "hasVoted",
          "type": "bool"
        },
        {
          "internalType": "uint256",
          "name": "votedProposalId",
          "type": "uint256"
        }
      ],
      "stateMutability": "view",
      "type": "function"
    },
    {
      "inputs": [
        {
          "internalType": "address",
          "name": "",
          "type": "address"
        }
      ],
      "name": "whiteList",
      "outputs": [
        {
          "internalType": "bool",
          "name": "isRegistered",
          "type": "bool"
        },
        {
          "internalType": "address",
          "name": "_address",
          "type": "address"
        },
        {
          "internalType": "bool",
          "name": "hasVoted",
          "type": "bool"
        },
        {
          "internalType": "uint256",
          "name": "votedProposalId",
          "type": "uint256"
        }
      ],
      "stateMutability": "view",
      "type": "function"
    },
    {
      "inputs": [],
      "name": "winningProposalId",
      "outputs": [
        {
          "internalType": "uint8",
          "name": "",
          "type": "uint8"
        }
      ],
      "stateMutability": "view",
      "type": "function"
    },
    {
      "inputs": [],
      "name": "getWinningProposal",
      "outputs": [
        {
          "components": [
            {
              "internalType": "uint8",
              "name": "id",
              "type": "uint8"
            },
            {
              "internalType": "address",
              "name": "owner",
              "type": "address"
            },
            {
              "internalType": "string",
              "name": "description",
              "type": "string"
            },
            {
              "internalType": "uint256",
              "name": "voteCount",
              "type": "uint256"
            }
          ],
          "internalType": "struct Voting.Proposal",
          "name": "proposal",
          "type": "tuple"
        }
      ],
      "stateMutability": "view",
      "type": "function"
    },
    {
      "inputs": [],
      "name": "getVotersCount",
      "outputs": [
        {
          "internalType": "uint8",
          "name": "",
          "type": "uint8"
        }
      ],
      "stateMutability": "view",
      "type": "function"
    },
    {
      "inputs": [
        {
          "internalType": "address",
          "name": "_address",
          "type": "address"
        }
      ],
      "name": "addVoter",
      "outputs": [],
      "stateMutability": "nonpayable",
      "type": "function"
    },
    {
      "inputs": [
        {
          "internalType": "address",
          "name": "_address",
          "type": "address"
        }
      ],
      "name": "deleteVoter",
      "outputs": [],
      "stateMutability": "nonpayable",
      "type": "function"
    },
    {
      "inputs": [],
      "name": "startProposalRegistration",
      "outputs": [],
      "stateMutability": "nonpayable",
      "type": "function"
    },
    {
      "inputs": [],
      "name": "endProposalRegistration",
      "outputs": [],
      "stateMutability": "nonpayable",
      "type": "function"
    },
    {
      "inputs": [],
      "name": "startVotingSession",
      "outputs": [],
      "stateMutability": "nonpayable",
      "type": "function"
    },
    {
      "inputs": [],
      "name": "endVotingSession",
      "outputs": [],
      "stateMutability": "nonpayable",
      "type": "function"
    },
    {
      "inputs": [
        {
          "internalType": "string",
          "name": "_description",
          "type": "string"
        }
      ],
      "name": "addProposal",
      "outputs": [],
      "stateMutability": "nonpayable",
      "type": "function"
    },
    {
      "inputs": [
        {
          "internalType": "uint256",
          "name": "_id",
          "type": "uint256"
        }
      ],
      "name": "deleteProposal",
      "outputs": [],
      "stateMutability": "nonpayable",
      "type": "function"
    },
    {
      "inputs": [
        {
          "internalType": "uint256",
          "name": "_id",
          "type": "uint256"
        }
      ],
      "name": "vote",
      "outputs": [],
      "stateMutability": "nonpayable",
      "type": "function"
    },
    {
      "inputs": [],
      "name": "count",
      "outputs": [],
      "stateMutability": "nonpayable",
      "type": "function"
    },
    {
      "inputs": [],
      "name": "getEnum",
      "outputs": [
        {
          "internalType": "enum Voting.WorkflowStatus",
          "name": "",
          "type": "uint8"
        }
      ],
      "stateMutability": "view",
      "type": "function"
    }
  ],
  "bytecode": "0x608060405234801561001057600080fd5b5060006100216100f060201b60201c565b9050806000806101000a81548173ffffffffffffffffffffffffffffffffffffffff021916908373ffffffffffffffffffffffffffffffffffffffff1602179055508073ffffffffffffffffffffffffffffffffffffffff16600073ffffffffffffffffffffffffffffffffffffffff167f8be0079c531659141344cd1fd0a4f28419497f9722a3daafe3b4186f6b6457e060405160405180910390a3507f28c5e727295d809da653948416bdc4fe30913878a5f1332ded39bc4730d10c5660405160405180910390a16100f8565b600033905090565b611ffd806101076000396000f3fe608060405234801561001057600080fd5b50600436106101375760003560e01c80638da5cb5b116100b8578063c64963c51161007c578063c64963c5146102e5578063e85a8f2a14610303578063ee74c6781461030d578063f0ebce5a14610317578063f2fde38b14610335578063f4ab9adf1461035157610137565b80638da5cb5b1461024e578063a3ec138d1461026c578063a51346201461029f578063a7bfab16146102bd578063c0f2a777146102c757610137565b80632fdae3c5116100ff5780632fdae3c5146101bd578063372c12b1146101d9578063715018a61461020c5780638259d5531461021657806388e1c7391461023257610137565b80630121b93f1461013c578063013cf08b1461015857806306661abd1461018b5780630f7e283814610195578063200d2ed21461019f575b600080fd5b61015660048036038101906101519190611a2f565b61036d565b005b610172600480360381019061016d9190611a2f565b61051c565b6040516101829493929190611da5565b60405180910390f35b610193610611565b005b61019d6107ba565b005b6101a76108a1565b6040516101b49190611cf2565b60405180910390f35b6101d760048036038101906101d291906119ee565b6108b4565b005b6101f360048036038101906101ee91906119c5565b610acd565b6040516102039493929190611cad565b60405180910390f35b610214610b37565b005b610230600480360381019061022b9190611a2f565b610c8a565b005b61024c600480360381019061024791906119c5565b610dc4565b005b610256610ef5565b6040516102639190611c69565b60405180910390f35b610286600480360381019061028191906119c5565b610f1e565b6040516102969493929190611cad565b60405180910390f35b6102a7610f88565b6040516102b49190611d4d565b60405180910390f35b6102c56110e3565b005b6102cf6111c9565b6040516102dc9190611d8a565b60405180910390f35b6102ed6111df565b6040516102fa9190611d8a565b60405180910390f35b61030b6111f2565b005b6103156112d9565b005b61031f6113c0565b60405161032c9190611cf2565b60405180910390f35b61034f600480360381019061034a91906119c5565b6113c5565b005b61036b600480360381019061036691906119c5565b611587565b005b60011515600260003373ffffffffffffffffffffffffffffffffffffffff1673ffffffffffffffffffffffffffffffffffffffff16815260200190815260200160002060000160009054906101000a900460ff161515146103cd57600080fd5b600360058111156103da57fe5b600460009054906101000a900460ff1660058111156103f557fe5b146103ff57600080fd5b60001515600260003373ffffffffffffffffffffffffffffffffffffffff1673ffffffffffffffffffffffffffffffffffffffff16815260200190815260200160002060000160159054906101000a900460ff1615151461045f57600080fd5b6001600260003373ffffffffffffffffffffffffffffffffffffffff1673ffffffffffffffffffffffffffffffffffffffff16815260200190815260200160002060000160156101000a81548160ff02191690831515021790555060036000828152602001908152602001600020600201600081548092919060010191905055507f4d99b957a2bc29a30ebd96a7be8e68fe50a3c701db28a91436490b7d53870ca43382604051610511929190611c84565b60405180910390a150565b60036020528060005260406000206000915090508060000160009054906101000a900460ff16908060000160019054906101000a900473ffffffffffffffffffffffffffffffffffffffff1690806001018054600181600116156101000203166002900480601f0160208091040260200160405190810160405280929190818152602001828054600181600116156101000203166002900480156106015780601f106105d657610100808354040283529160200191610601565b820191906000526020600020905b8154815290600101906020018083116105e457829003601f168201915b5050505050908060020154905084565b6106196117d7565b73ffffffffffffffffffffffffffffffffffffffff1660008054906101000a900473ffffffffffffffffffffffffffffffffffffffff1673ffffffffffffffffffffffffffffffffffffffff16146106a6576040517f08c379a000000000000000000000000000000000000000000000000000000000815260040161069d90611d2d565b60405180910390fd5b600460058111156106b357fe5b600460009054906101000a900460ff1660058111156106ce57fe5b146106d857600080fd5b60008060005b600060159054906101000a900460ff1660ff1681101561074a57600360008281526020019081526020016000206002015482101561073d576003600082815260200190815260200160002060000160009054906101000a900460ff1692505b80806001019150506106de565b5081600060146101000a81548160ff021916908360ff1602179055507f0e5e95ff8725ab3e7a4b6b59998a4c344c2aa8d1485f5e60cb7f337768e6134760405160405180910390a16005600460006101000a81548160ff021916908360058111156107b157fe5b02179055505050565b6107c26117d7565b73ffffffffffffffffffffffffffffffffffffffff1660008054906101000a900473ffffffffffffffffffffffffffffffffffffffff1673ffffffffffffffffffffffffffffffffffffffff161461084f576040517f08c379a000000000000000000000000000000000000000000000000000000000815260040161084690611d2d565b60405180910390fd5b6001600460006101000a81548160ff0219169083600581111561086e57fe5b02179055507f344c25562921d075a298d34b6dd1fd00d36ff293974539dfd4a8c625d9f0064c60405160405180910390a1565b600460009054906101000a900460ff1681565b60011515600260003373ffffffffffffffffffffffffffffffffffffffff1673ffffffffffffffffffffffffffffffffffffffff16815260200190815260200160002060000160009054906101000a900460ff1615151461091457600080fd5b6001600581111561092157fe5b600460009054906101000a900460ff16600581111561093c57fe5b1461094657600080fd5b61094e6117df565b6040518060800160405280600060159054906101000a900460ff1660ff1681526020013373ffffffffffffffffffffffffffffffffffffffff1681526020018381526020016000815250905080600360008060159054906101000a900460ff1660ff16815260200190815260200160002060008201518160000160006101000a81548160ff021916908360ff16021790555060208201518160000160016101000a81548173ffffffffffffffffffffffffffffffffffffffff021916908373ffffffffffffffffffffffffffffffffffffffff1602179055506040820151816001019080519060200190610a43929190611820565b50606082015181600201559050507f92e393e9b54e2f801d3ea4beb0c5e71a21cc34a5d34b77d0fb8a3aa1650dc18f600060159054906101000a900460ff16604051610a8f9190611d6f565b60405180910390a16000601581819054906101000a900460ff168092919060010191906101000a81548160ff021916908360ff160217905550505050565b60026020528060005260406000206000915090508060000160009054906101000a900460ff16908060000160019054906101000a900473ffffffffffffffffffffffffffffffffffffffff16908060000160159054906101000a900460ff16908060010154905084565b610b3f6117d7565b73ffffffffffffffffffffffffffffffffffffffff1660008054906101000a900473ffffffffffffffffffffffffffffffffffffffff1673ffffffffffffffffffffffffffffffffffffffff1614610bcc576040517f08c379a0000000000000000000000000000000000000000000000000000000008152600401610bc390611d2d565b60405180910390fd5b600073ffffffffffffffffffffffffffffffffffffffff1660008054906101000a900473ffffffffffffffffffffffffffffffffffffffff1673ffffffffffffffffffffffffffffffffffffffff167f8be0079c531659141344cd1fd0a4f28419497f9722a3daafe3b4186f6b6457e060405160405180910390a360008060006101000a81548173ffffffffffffffffffffffffffffffffffffffff021916908373ffffffffffffffffffffffffffffffffffffffff160217905550565b60011515600260003373ffffffffffffffffffffffffffffffffffffffff1673ffffffffffffffffffffffffffffffffffffffff16815260200190815260200160002060000160009054906101000a900460ff16151514610cea57600080fd5b3373ffffffffffffffffffffffffffffffffffffffff166003600083815260200190815260200160002060000160019054906101000a900473ffffffffffffffffffffffffffffffffffffffff1673ffffffffffffffffffffffffffffffffffffffff1614610d5857600080fd5b60036000828152602001908152602001600020600080820160006101000a81549060ff02191690556000820160016101000a81549073ffffffffffffffffffffffffffffffffffffffff0219169055600182016000610db791906118a0565b6002820160009055505050565b610dcc6117d7565b73ffffffffffffffffffffffffffffffffffffffff1660008054906101000a900473ffffffffffffffffffffffffffffffffffffffff1673ffffffffffffffffffffffffffffffffffffffff1614610e59576040517f08c379a0000000000000000000000000000000000000000000000000000000008152600401610e5090611d2d565b60405180910390fd5b600260008273ffffffffffffffffffffffffffffffffffffffff1673ffffffffffffffffffffffffffffffffffffffff168152602001908152602001600020600080820160006101000a81549060ff02191690556000820160016101000a81549073ffffffffffffffffffffffffffffffffffffffff02191690556000820160156101000a81549060ff02191690556001820160009055505050565b60008060009054906101000a900473ffffffffffffffffffffffffffffffffffffffff16905090565b60016020528060005260406000206000915090508060000160009054906101000a900460ff16908060000160019054906101000a900473ffffffffffffffffffffffffffffffffffffffff16908060000160159054906101000a900460ff16908060010154905084565b610f906117df565b600360008060149054906101000a900460ff1660ff1681526020019081526020016000206040518060800160405290816000820160009054906101000a900460ff1660ff1660ff1681526020016000820160019054906101000a900473ffffffffffffffffffffffffffffffffffffffff1673ffffffffffffffffffffffffffffffffffffffff1673ffffffffffffffffffffffffffffffffffffffff168152602001600182018054600181600116156101000203166002900480601f0160208091040260200160405190810160405280929190818152602001828054600181600116156101000203166002900480156110cb5780601f106110a0576101008083540402835291602001916110cb565b820191906000526020600020905b8154815290600101906020018083116110ae57829003601f168201915b50505050508152602001600282015481525050905090565b6110eb6117d7565b73ffffffffffffffffffffffffffffffffffffffff1660008054906101000a900473ffffffffffffffffffffffffffffffffffffffff1673ffffffffffffffffffffffffffffffffffffffff1614611178576040517f08c379a000000000000000000000000000000000000000000000000000000000815260040161116f90611d2d565b60405180910390fd5b60048060006101000a81548160ff0219169083600581111561119657fe5b02179055507fc379d349a6301baf50fb2f98d829f4ae10b1cdb7c66f4e4d8117302df7b8cd4c60405160405180910390a1565b60008060169054906101000a900460ff16905090565b600060149054906101000a900460ff1681565b6111fa6117d7565b73ffffffffffffffffffffffffffffffffffffffff1660008054906101000a900473ffffffffffffffffffffffffffffffffffffffff1673ffffffffffffffffffffffffffffffffffffffff1614611287576040517f08c379a000000000000000000000000000000000000000000000000000000000815260040161127e90611d2d565b60405180910390fd5b6002600460006101000a81548160ff021916908360058111156112a657fe5b02179055507f240cb87b2e4df4c318e72bd714d45a9cad60249e883ff56b1fffd83a4595a8fa60405160405180910390a1565b6112e16117d7565b73ffffffffffffffffffffffffffffffffffffffff1660008054906101000a900473ffffffffffffffffffffffffffffffffffffffff1673ffffffffffffffffffffffffffffffffffffffff161461136e576040517f08c379a000000000000000000000000000000000000000000000000000000000815260040161136590611d2d565b60405180910390fd5b6003600460006101000a81548160ff0219169083600581111561138d57fe5b02179055507f1b8e19a458c1bcd88553332c518cc5c4e2d5793e712ee766d4f1c14f672ef1f560405160405180910390a1565b600090565b6113cd6117d7565b73ffffffffffffffffffffffffffffffffffffffff1660008054906101000a900473ffffffffffffffffffffffffffffffffffffffff1673ffffffffffffffffffffffffffffffffffffffff161461145a576040517f08c379a000000000000000000000000000000000000000000000000000000000815260040161145190611d2d565b60405180910390fd5b600073ffffffffffffffffffffffffffffffffffffffff168173ffffffffffffffffffffffffffffffffffffffff1614156114ca576040517f08c379a00000000000000000000000000000000000000000000000000000000081526004016114c190611d0d565b60405180910390fd5b8073ffffffffffffffffffffffffffffffffffffffff1660008054906101000a900473ffffffffffffffffffffffffffffffffffffffff1673ffffffffffffffffffffffffffffffffffffffff167f8be0079c531659141344cd1fd0a4f28419497f9722a3daafe3b4186f6b6457e060405160405180910390a3806000806101000a81548173ffffffffffffffffffffffffffffffffffffffff021916908373ffffffffffffffffffffffffffffffffffffffff16021790555050565b61158f6117d7565b73ffffffffffffffffffffffffffffffffffffffff1660008054906101000a900473ffffffffffffffffffffffffffffffffffffffff1673ffffffffffffffffffffffffffffffffffffffff161461161c576040517f08c379a000000000000000000000000000000000000000000000000000000000815260040161161390611d2d565b60405180910390fd5b6000600581111561162957fe5b600460009054906101000a900460ff16600581111561164457fe5b1461164e57600080fd5b6116566118e8565b60405180608001604052806001151581526020018373ffffffffffffffffffffffffffffffffffffffff1681526020016000151581526020016000815250905080600260008473ffffffffffffffffffffffffffffffffffffffff1673ffffffffffffffffffffffffffffffffffffffff16815260200190815260200160002060008201518160000160006101000a81548160ff02191690831515021790555060208201518160000160016101000a81548173ffffffffffffffffffffffffffffffffffffffff021916908373ffffffffffffffffffffffffffffffffffffffff16021790555060408201518160000160156101000a81548160ff021916908315150217905550606082015181600101559050506000601681819054906101000a900460ff168092919060010191906101000a81548160ff021916908360ff160217905550507fb6be2187d059cc2a55fe29e0e503b566e1e0f8c8780096e185429350acffd3dd826040516117cb9190611c69565b60405180910390a15050565b600033905090565b6040518060800160405280600060ff168152602001600073ffffffffffffffffffffffffffffffffffffffff16815260200160608152602001600081525090565b828054600181600116156101000203166002900490600052602060002090601f016020900481019282601f1061186157805160ff191683800117855561188f565b8280016001018555821561188f579182015b8281111561188e578251825591602001919060010190611873565b5b50905061189c919061192a565b5090565b50805460018160011615610100020316600290046000825580601f106118c657506118e5565b601f0160209004906000526020600020908101906118e4919061192a565b5b50565b6040518060800160405280600015158152602001600073ffffffffffffffffffffffffffffffffffffffff168152602001600015158152602001600081525090565b5b8082111561194357600081600090555060010161192b565b5090565b60008135905061195681611f99565b92915050565b600082601f83011261196d57600080fd5b813561198061197b82611e1e565b611df1565b9150808252602083016020830185838301111561199c57600080fd5b6119a7838284611f39565b50505092915050565b6000813590506119bf81611fb0565b92915050565b6000602082840312156119d757600080fd5b60006119e584828501611947565b91505092915050565b600060208284031215611a0057600080fd5b600082013567ffffffffffffffff811115611a1a57600080fd5b611a268482850161195c565b91505092915050565b600060208284031215611a4157600080fd5b6000611a4f848285016119b0565b91505092915050565b611a6181611edf565b82525050565b611a7081611e77565b82525050565b611a7f81611e77565b82525050565b611a8e81611e89565b82525050565b611a9d81611ef1565b82525050565b6000611aae82611e4a565b611ab88185611e55565b9350611ac8818560208601611f48565b611ad181611f7b565b840191505092915050565b6000611ae782611e4a565b611af18185611e66565b9350611b01818560208601611f48565b611b0a81611f7b565b840191505092915050565b6000611b22602683611e66565b91507f4f776e61626c653a206e6577206f776e657220697320746865207a65726f206160008301527f64647265737300000000000000000000000000000000000000000000000000006020830152604082019050919050565b6000611b88602083611e66565b91507f4f776e61626c653a2063616c6c6572206973206e6f7420746865206f776e65726000830152602082019050919050565b6000608083016000830151611bd36000860182611c4b565b506020830151611be66020860182611a67565b5060408301518482036040860152611bfe8282611aa3565b9150506060830151611c136060860182611c1e565b508091505092915050565b611c2781611ec8565b82525050565b611c3681611ec8565b82525050565b611c4581611f27565b82525050565b611c5481611ed2565b82525050565b611c6381611ed2565b82525050565b6000602082019050611c7e6000830184611a76565b92915050565b6000604082019050611c996000830185611a58565b611ca66020830184611c2d565b9392505050565b6000608082019050611cc26000830187611a85565b611ccf6020830186611a76565b611cdc6040830185611a85565b611ce96060830184611c2d565b95945050505050565b6000602082019050611d076000830184611a94565b92915050565b60006020820190508181036000830152611d2681611b15565b9050919050565b60006020820190508181036000830152611d4681611b7b565b9050919050565b60006020820190508181036000830152611d678184611bbb565b905092915050565b6000602082019050611d846000830184611c3c565b92915050565b6000602082019050611d9f6000830184611c5a565b92915050565b6000608082019050611dba6000830187611c5a565b611dc76020830186611a76565b8181036040830152611dd98185611adc565b9050611de86060830184611c2d565b95945050505050565b6000604051905081810181811067ffffffffffffffff82111715611e1457600080fd5b8060405250919050565b600067ffffffffffffffff821115611e3557600080fd5b601f19601f8301169050602081019050919050565b600081519050919050565b600082825260208201905092915050565b600082825260208201905092915050565b6000611e8282611ea8565b9050919050565b60008115159050919050565b6000819050611ea382611f8c565b919050565b600073ffffffffffffffffffffffffffffffffffffffff82169050919050565b6000819050919050565b600060ff82169050919050565b6000611eea82611f03565b9050919050565b6000611efc82611e95565b9050919050565b6000611f0e82611f15565b9050919050565b6000611f2082611ea8565b9050919050565b6000611f3282611ed2565b9050919050565b82818337600083830152505050565b60005b83811015611f66578082015181840152602081019050611f4b565b83811115611f75576000848401525b50505050565b6000601f19601f8301169050919050565b60068110611f9657fe5b50565b611fa281611e77565b8114611fad57600080fd5b50565b611fb981611ec8565b8114611fc457600080fd5b5056fea26469706673582212200fbee3a717b98dfd3739c435a52ff5df8d56ee6d9f8687d95fc53e397b80fdc464736f6c634300060c0033",
  "immutableReferences": {},
  "source": "// SPDX-License-Identifier: GPL-3.0\npragma solidity ^0.6.11;\npragma experimental ABIEncoderV2;\n\n/* import contrat ownable*/\nimport \"./Ownable.sol\";\n\n/**\n * @title Voting\n   @author Sandy,Julien,Stphane\n   @notice Contrat de vote, getsion par un superadmin\n */\n\ncontract Voting is Ownable {\n    uint8 public winningProposalId;\n\n    uint8 proposalIds;\n    uint8 votersCount;\n\n    struct Voter {\n        bool isRegistered;\n        address _address;\n        bool hasVoted;\n        uint256 votedProposalId;\n    }\n\n    struct Proposal {\n        uint8 id;\n        address owner;\n        string description;\n        uint256 voteCount;\n    }\n\n    mapping(address => Voter) public voters; // liste lectorale\n    mapping(address => Voter) public whiteList;\n\n    mapping(uint256 => Proposal) public proposals;\n\n    enum WorkflowStatus {\n        RegisteringVoters,\n        ProposalsRegistrationStarted,\n        ProposalsRegistrationEnded,\n        VotingSessionStarted,\n        VotingSessionEnded,\n        VotesTallied\n    }\n\n    WorkflowStatus public status;\n\n    ///@notice Events\n    event NewVotingSystem();\n    event VoterRegistered(address voterAddress);\n    event ProposalsRegistrationStarted();\n    event ProposalsRegistrationEnded();\n    event ProposalRegistered(uint256 proposalId);\n    event VotingSessionStarted();\n    event VotingSessionEnded();\n    event Voted(address voter, uint256 proposalId);\n    event VotesTallied();\n    event WorkflowStatusChange(\n        WorkflowStatus previousStatus,\n        WorkflowStatus newStatus\n    );\n\n    constructor() public {\n        emit NewVotingSystem();\n    }\n\n    function getWinningProposal()\n        public\n        view\n        returns (Proposal memory proposal)\n    {\n        return proposals[winningProposalId];\n    }\n\n    function getVotersCount() public view returns (uint8) {\n        return votersCount;\n    }\n\n    ///@param _address  ajouter  la whitelist\n    function addVoter(address _address) public onlyOwner {\n        require(status == WorkflowStatus.RegisteringVoters);\n        Voter memory newVoter = Voter(true, _address, false, 0);\n        whiteList[_address] = newVoter;\n        votersCount++;\n        emit VoterRegistered(_address);\n    }\n\n    ///@dev verifier le gas\n    function deleteVoter(address _address) public onlyOwner {\n        delete whiteList[_address];\n    }\n\n    function startProposalRegistration() public onlyOwner {\n        status = WorkflowStatus.ProposalsRegistrationStarted;\n        emit ProposalsRegistrationStarted();\n    }\n\n    function endProposalRegistration() public onlyOwner {\n        status = WorkflowStatus.ProposalsRegistrationEnded;\n        emit ProposalsRegistrationEnded();\n    }\n\n    function startVotingSession() public onlyOwner {\n        status = WorkflowStatus.VotingSessionStarted;\n        emit VotingSessionStarted();\n    }\n\n    function endVotingSession() public onlyOwner {\n        status = WorkflowStatus.VotingSessionEnded;\n        emit VotingSessionEnded();\n    }\n\n    ///@dev Verification de la presence de l'address dans la whitelist\n    modifier whiteListed() {\n        require(whiteList[msg.sender].isRegistered == true);\n        _;\n    }\n\n    ///@param _description est le nom de la proposition\n    function addProposal(string memory _description) public whiteListed {\n        //obligation d'tre dans le workflow correspondant\n        require(status == WorkflowStatus.ProposalsRegistrationStarted);\n        Proposal memory newProposal =\n            Proposal(proposalIds, msg.sender, _description, 0);\n        proposals[proposalIds] = newProposal;\n        emit ProposalRegistered(proposalIds);\n        proposalIds++;\n    }\n\n    function deleteProposal(uint256 _id) public whiteListed {\n        require(proposals[_id].owner == msg.sender);\n        delete proposals[_id];\n    }\n\n    function vote(uint256 _id) public whiteListed {\n        require(status == WorkflowStatus.VotingSessionStarted);\n        require(whiteList[msg.sender].hasVoted == false);\n        whiteList[msg.sender].hasVoted = true;\n        proposals[_id].voteCount++;\n        emit Voted(msg.sender, _id);\n    }\n\n    function count() public onlyOwner {\n        require(status == WorkflowStatus.VotingSessionEnded);\n        uint8 id;\n        uint256 highestCount;\n\n        for (uint256 i = 0; i < proposalIds; i++) {\n            if (highestCount < proposals[i].voteCount) {\n                id = proposals[i].id;\n            }\n            ///@dev  voir les cas particuliers o plusieurs gagnants\n        }\n        winningProposalId = id;\n        emit VotesTallied();\n        status = WorkflowStatus.VotesTallied;\n    }\n\n    ///@return le statut en cours du vote\n    function getEnum() public view returns (WorkflowStatus) {}\n}\n",
  "sourcePath": "/Users/sandyinstructor/Documents/BLOCKCHAIN/Alyra/Defi/defi1/contracts/Voting.sol",
  "compiler": {
    "name": "solc",
    "version": "0.6.12+commit.27d51765.Emscripten.clang"
  },
  "schemaVersion": "3.3.4",
  "updatedAt": "2021-02-27T22:11:00.615Z",
  "devdoc": {
    "author": "Sandy,Julien,Stphane",
    "kind": "dev",
    "methods": {
      "addProposal(string)": {
        "params": {
          "_description": "est le nom de la proposition"
        }
      },
      "addVoter(address)": {
        "params": {
          "_address": " ajouter  la whitelist"
        }
      },
      "deleteVoter(address)": {
        "details": "verifier le gas"
      },
      "getEnum()": {
        "returns": {
          "_0": "le statut en cours du vote"
        }
      },
      "owner()": {
        "details": "Returns the address of the current owner."
      },
      "renounceOwnership()": {
        "details": "Leaves the contract without owner. It will not be possible to call `onlyOwner` functions anymore. Can only be called by the current owner. NOTE: Renouncing ownership will leave the contract without an owner, thereby removing any functionality that is only available to the owner."
      },
      "transferOwnership(address)": {
        "details": "Transfers ownership of the contract to a new account (`newOwner`). Can only be called by the current owner."
      }
    },
    "title": "Voting",
    "version": 1
  },
  "userdoc": {
    "events": {
      "NewVotingSystem()": {
        "notice": "Events"
      }
    },
    "kind": "user",
    "methods": {},
    "notice": "Contrat de vote, getsion par un superadmin",
    "version": 1
  }
}